{
  "contractName": "TimeService",
  "abi": [
    {
      "constant": true,
      "inputs": [],
      "name": "create_timestamp",
      "outputs": [
        {
          "name": "",
          "type": "uint256"
        }
      ],
      "payable": false,
      "stateMutability": "view",
      "type": "function"
    },
    {
      "constant": true,
      "inputs": [],
      "name": "end_timestamp",
      "outputs": [
        {
          "name": "",
          "type": "uint256"
        }
      ],
      "payable": false,
      "stateMutability": "view",
      "type": "function"
    },
    {
      "constant": true,
      "inputs": [],
      "name": "owner",
      "outputs": [
        {
          "name": "",
          "type": "address"
        }
      ],
      "payable": false,
      "stateMutability": "view",
      "type": "function"
    },
    {
      "constant": true,
      "inputs": [],
      "name": "funds",
      "outputs": [
        {
          "name": "",
          "type": "uint256"
        }
      ],
      "payable": false,
      "stateMutability": "view",
      "type": "function"
    },
    {
      "inputs": [],
      "payable": false,
      "stateMutability": "nonpayable",
      "type": "constructor"
    },
    {
      "constant": false,
      "inputs": [],
      "name": "create",
      "outputs": [],
      "payable": true,
      "stateMutability": "payable",
      "type": "function"
    },
    {
      "constant": true,
      "inputs": [],
      "name": "getEndTime",
      "outputs": [
        {
          "name": "",
          "type": "uint256"
        }
      ],
      "payable": false,
      "stateMutability": "view",
      "type": "function"
    },
    {
      "constant": true,
      "inputs": [],
      "name": "isActive",
      "outputs": [
        {
          "name": "",
          "type": "bool"
        }
      ],
      "payable": false,
      "stateMutability": "view",
      "type": "function"
    },
    {
      "constant": false,
      "inputs": [],
      "name": "withdraw",
      "outputs": [],
      "payable": true,
      "stateMutability": "payable",
      "type": "function"
    }
  ],
  "bytecode": "0x608060405234801561001057600080fd5b50336000806101000a81548173ffffffffffffffffffffffffffffffffffffffff021916908373ffffffffffffffffffffffffffffffffffffffff1602179055506000600181905550600060028190555060006003819055506104c8806100786000396000f30060806040526004361061008e576000357c0100000000000000000000000000000000000000000000000000000000900463ffffffff16806322f3e2d4146100935780633ccfd60b146100c25780633ea3ff93146100cc578063439f5ac2146100f7578063876ac3eb146101225780638da5cb5b1461014d578063c89f2ce4146101a4578063efc81a8c146101cf575b600080fd5b34801561009f57600080fd5b506100a86101d9565b604051808215151515815260200191505060405180910390f35b6100ca6101e5565b005b3480156100d857600080fd5b506100e1610343565b6040518082815260200191505060405180910390f35b34801561010357600080fd5b5061010c610349565b6040518082815260200191505060405180910390f35b34801561012e57600080fd5b506101376103cc565b6040518082815260200191505060405180910390f35b34801561015957600080fd5b506101626103d2565b604051808273ffffffffffffffffffffffffffffffffffffffff1673ffffffffffffffffffffffffffffffffffffffff16815260200191505060405180910390f35b3480156101b057600080fd5b506101b96103f7565b6040518082815260200191505060405180910390f35b6101d76103fd565b005b60006002544210905090565b6000809054906101000a900473ffffffffffffffffffffffffffffffffffffffff1673ffffffffffffffffffffffffffffffffffffffff163373ffffffffffffffffffffffffffffffffffffffff161415156102cf576040517f08c379a00000000000000000000000000000000000000000000000000000000081526004018080602001828103825260258152602001807f596f75206d757374206f776e2074686520636f6e747261637420746f2077697481526020017f686472617700000000000000000000000000000000000000000000000000000081525060400191505060405180910390fd5b6000809054906101000a900473ffffffffffffffffffffffffffffffffffffffff1673ffffffffffffffffffffffffffffffffffffffff166108fc6003549081150290604051600060405180830381858888f19350505050158015610338573d6000803e3d6000fd5b506000600381905550565b60015481565b6000600254421015156103c4576040517f08c379a000000000000000000000000000000000000000000000000000000000815260040180806020018281038252601a8152602001807f436f6e747261637420616c72656164792061637469766174656400000000000081525060200191505060405180910390fd5b600254905090565b60025481565b6000809054906101000a900473ffffffffffffffffffffffffffffffffffffffff1681565b60035481565b60025442101515610476576040517f08c379a000000000000000000000000000000000000000000000000000000000815260040180806020018281038252601a8152602001807f436f6e747261637420616c72656164792061637469766174656400000000000081525060200191505060405180910390fd5b4260018190555034600360008282540192505081905550600354600154016002819055505600a165627a7a723058205ca138cc047b2ca274652d0267eeb4b514a6be6d7639764b5aa405f1cd1525150029",
  "source": "pragma solidity ^0.4.18;\n\ncontract TimeService {\n\n    address public owner;\n    uint256 public create_timestamp;\n    uint256 public end_timestamp;\n    uint256 public funds;\n\n\n    function create() public payable {\n        require(now < end_timestamp, \"Contract already activated\");\n        create_timestamp = now;\n        funds += msg.value;\n        end_timestamp = create_timestamp + funds;\n    }\n\n\n    function getEndTime() public view returns (uint256) {\n        require(now < end_timestamp, \"Contract already activated\");\n        return end_timestamp;\n    }\n\n\n    function isActive() public view returns (bool) {\n        return now < end_timestamp;\n    }\n\n\n    function withdraw() public payable {\n        require(msg.sender == owner, \"You must own the contract to withdraw\");\n        owner.transfer(funds);\n        funds = 0;\n    }\n\n\n    constructor() public {\n        owner = msg.sender;\n        create_timestamp = 0;\n        end_timestamp = 0;\n        funds = 0;\n    }\n\n}\n",
  "sourcePath": "/Users/alex/Hackathons/hc19-0xGG/smart-contracts/contracts/TimeService.sol",
  "compiler": {
    "name": "solc",
    "version": "0.4.25+commit.59dbf8f1.Emscripten.clang"
  },
  "schemaVersion": "2.0.2",
  "updatedAt": "2019-07-20T10:53:05.448Z"
}